{
  "address": "0x3Cf0458D3e17aFeE1fBe85419F5d9Af4B7C7Ad19",
  "abi": [
    {
      "inputs": [
        {
          "internalType": "address payable",
          "name": "diceGameAddress",
          "type": "address"
        }
      ],
      "stateMutability": "nonpayable",
      "type": "constructor"
    },
    {
      "anonymous": false,
      "inputs": [
        {
          "indexed": true,
          "internalType": "address",
          "name": "previousOwner",
          "type": "address"
        },
        {
          "indexed": true,
          "internalType": "address",
          "name": "newOwner",
          "type": "address"
        }
      ],
      "name": "OwnershipTransferred",
      "type": "event"
    },
    {
      "inputs": [],
      "name": "diceGame",
      "outputs": [
        {
          "internalType": "contract DiceGame",
          "name": "",
          "type": "address"
        }
      ],
      "stateMutability": "view",
      "type": "function"
    },
    {
      "inputs": [],
      "name": "owner",
      "outputs": [
        {
          "internalType": "address",
          "name": "",
          "type": "address"
        }
      ],
      "stateMutability": "view",
      "type": "function"
    },
    {
      "inputs": [],
      "name": "renounceOwnership",
      "outputs": [],
      "stateMutability": "nonpayable",
      "type": "function"
    },
    {
      "inputs": [],
      "name": "riggedRoll",
      "outputs": [],
      "stateMutability": "payable",
      "type": "function"
    },
    {
      "inputs": [
        {
          "internalType": "address",
          "name": "newOwner",
          "type": "address"
        }
      ],
      "name": "transferOwnership",
      "outputs": [],
      "stateMutability": "nonpayable",
      "type": "function"
    },
    {
      "inputs": [
        {
          "internalType": "address payable",
          "name": "_addr",
          "type": "address"
        },
        {
          "internalType": "uint256",
          "name": "_amount",
          "type": "uint256"
        }
      ],
      "name": "withdraw",
      "outputs": [],
      "stateMutability": "nonpayable",
      "type": "function"
    },
    {
      "stateMutability": "payable",
      "type": "receive"
    }
  ],
  "transactionHash": "0x1a2ca2535580901a850b0e768dc2ed6403effd5a283a2f4c1611c05da275ca87",
  "args": [
    "0xE2c046f4F6eCDeAd3942a9230926e3F35B02AdB9"
  ],
  "numDeployments": 2,
  "solcInputHash": "f981ed5118c93b58f0ff1af23d554582",
  "bytecode": "0x608060405234801561001057600080fd5b5060405161083638038061083683398101604081905261002f916100ad565b6100383361005d565b600180546001600160a01b0319166001600160a01b03929092169190911790556100dd565b600080546001600160a01b038381166001600160a01b0319831681178455604051919092169283917f8be0079c531659141344cd1fd0a4f28419497f9722a3daafe3b4186f6b6457e09190a35050565b6000602082840312156100bf57600080fd5b81516001600160a01b03811681146100d657600080fd5b9392505050565b61074a806100ec6000396000f3fe6080604052600436106100595760003560e01c80636b5e97f814610065578063715018a61461006f5780638da5cb5b146100845780638e288fd1146100ba578063f2fde38b146100da578063f3fef3a3146100fa57600080fd5b3661006057005b600080fd5b61006d61011a565b005b34801561007b57600080fd5b5061006d61036a565b34801561009057600080fd5b506000546001600160a01b03165b6040516001600160a01b03909116815260200160405180910390f35b3480156100c657600080fd5b5060015461009e906001600160a01b031681565b3480156100e657600080fd5b5061006d6100f536600461060d565b61037e565b34801561010657600080fd5b5061006d610115366004610631565b6103f7565b66071afd498d00004710156101765760405162461bcd60e51b815260206004820152601860248201527f4e6f7420656e6f75676820457468657220746f20726f6c6c000000000000000060448201526064015b60405180910390fd5b600061018360014361065d565b6001546040805163057ff68760e51b815290519240935060009284926001600160a01b031691829163affed0e0916004808201926020929091908290030181865afa1580156101d6573d6000803e3d6000fd5b505050506040513d601f19601f820116820180604052508101906101fa9190610684565b60405160200161022f9392919092835260609190911b6bffffffffffffffffffffffff19166020830152603482015260540190565b60408051601f1981840301815291905280516020909101209050600061025660108361069d565b905061028f604051806040016040528060158152602001740283932b234b1ba32b2102234b1b2902937b6361d1605d1b815250826104e0565b6005811161030c57600160009054906101000a90046001600160a01b03166001600160a01b0316637d789dee66071afd498d00006040518263ffffffff1660e01b81526004016000604051808303818588803b1580156102ee57600080fd5b505af1158015610302573d6000803e3d6000fd5b5050505050505050565b60405162461bcd60e51b815260206004820152602860248201527f50726564696374656420726f6c6c20697320756e6661766f7261626c652c2074604482015267393c9030b3b0b4b760c11b606482015260840161016d565b505050565b610372610529565b61037c6000610583565b565b610386610529565b6001600160a01b0381166103eb5760405162461bcd60e51b815260206004820152602660248201527f4f776e61626c653a206e6577206f776e657220697320746865207a65726f206160448201526564647265737360d01b606482015260840161016d565b6103f481610583565b50565b6103ff610529565b804710156104465760405162461bcd60e51b8152602060048201526014602482015273496e73756666696369656e742062616c616e636560601b604482015260640161016d565b6000826001600160a01b03168260405160006040518083038185875af1925050503d8060008114610493576040519150601f19603f3d011682016040523d82523d6000602084013e610498565b606091505b50509050806103655760405162461bcd60e51b81526020600482015260146024820152732330b4b632b2103a379039b2b7321022ba3432b960611b604482015260640161016d565b61052582826040516024016104f69291906106bf565b60408051601f198184030181529190526020810180516001600160e01b0316632d839cb360e21b1790526105d3565b5050565b6000546001600160a01b0316331461037c5760405162461bcd60e51b815260206004820181905260248201527f4f776e61626c653a2063616c6c6572206973206e6f7420746865206f776e6572604482015260640161016d565b600080546001600160a01b038381166001600160a01b0319831681178455604051919092169283917f8be0079c531659141344cd1fd0a4f28419497f9722a3daafe3b4186f6b6457e09190a35050565b6103f48160006a636f6e736f6c652e6c6f679050600080835160208501845afa505050565b6001600160a01b03811681146103f457600080fd5b60006020828403121561061f57600080fd5b813561062a816105f8565b9392505050565b6000806040838503121561064457600080fd5b823561064f816105f8565b946020939093013593505050565b8181038181111561067e57634e487b7160e01b600052601160045260246000fd5b92915050565b60006020828403121561069657600080fd5b5051919050565b6000826106ba57634e487b7160e01b600052601260045260246000fd5b500690565b604081526000835180604084015260005b818110156106ed57602081870181015160608684010152016106d0565b506000606082850101526060601f19601f830116840101915050826020830152939250505056fea264697066735822122016afcbef6f09a56a014859901467ab720e1436c9015bee42b2aa1e9123ef12f164736f6c63430008110033",
  "devdoc": {
    "kind": "dev",
    "methods": {
      "owner()": {
        "details": "Returns the address of the current owner."
      },
      "renounceOwnership()": {
        "details": "Leaves the contract without owner. It will not be possible to call `onlyOwner` functions anymore. Can only be called by the current owner. NOTE: Renouncing ownership will leave the contract without an owner, thereby removing any functionality that is only available to the owner."
      },
      "transferOwnership(address)": {
        "details": "Transfers ownership of the contract to a new account (`newOwner`). Can only be called by the current owner."
      }
    },
    "version": 1
  },
  "userdoc": {
    "kind": "user",
    "methods": {},
    "version": 1
  },
  "storageLayout": {
    "storage": [
      {
        "astId": 7,
        "contract": "contracts/RiggedRoll.sol:RiggedRoll",
        "label": "_owner",
        "offset": 0,
        "slot": "0",
        "type": "t_address"
      },
      {
        "astId": 308,
        "contract": "contracts/RiggedRoll.sol:RiggedRoll",
        "label": "diceGame",
        "offset": 0,
        "slot": "1",
        "type": "t_contract(DiceGame)298"
      }
    ],
    "types": {
      "t_address": {
        "encoding": "inplace",
        "label": "address",
        "numberOfBytes": "20"
      },
      "t_contract(DiceGame)298": {
        "encoding": "inplace",
        "label": "contract DiceGame",
        "numberOfBytes": "20"
      }
    }
  }
}