{
  "address": "0xD9a1A076C2dbfA2EF979D5f9a0D1412B309F7b72",
  "abi": [
    {
      "inputs": [
        {
          "internalType": "address",
          "name": "exampleExternalContractAddress",
          "type": "address"
        }
      ],
      "stateMutability": "nonpayable",
      "type": "constructor"
    },
    {
      "anonymous": false,
      "inputs": [
        {
          "indexed": true,
          "internalType": "address",
          "name": "staker",
          "type": "address"
        },
        {
          "indexed": false,
          "internalType": "uint256",
          "name": "amount",
          "type": "uint256"
        }
      ],
      "name": "Stake",
      "type": "event"
    },
    {
      "inputs": [
        {
          "internalType": "address",
          "name": "",
          "type": "address"
        }
      ],
      "name": "balances",
      "outputs": [
        {
          "internalType": "uint256",
          "name": "",
          "type": "uint256"
        }
      ],
      "stateMutability": "view",
      "type": "function"
    },
    {
      "inputs": [],
      "name": "deadline",
      "outputs": [
        {
          "internalType": "uint256",
          "name": "",
          "type": "uint256"
        }
      ],
      "stateMutability": "view",
      "type": "function"
    },
    {
      "inputs": [],
      "name": "exampleExternalContract",
      "outputs": [
        {
          "internalType": "contract ExampleExternalContract",
          "name": "",
          "type": "address"
        }
      ],
      "stateMutability": "view",
      "type": "function"
    },
    {
      "inputs": [],
      "name": "execute",
      "outputs": [],
      "stateMutability": "nonpayable",
      "type": "function"
    },
    {
      "inputs": [],
      "name": "openForWithdraw",
      "outputs": [
        {
          "internalType": "bool",
          "name": "",
          "type": "bool"
        }
      ],
      "stateMutability": "view",
      "type": "function"
    },
    {
      "inputs": [],
      "name": "stake",
      "outputs": [],
      "stateMutability": "payable",
      "type": "function"
    },
    {
      "inputs": [],
      "name": "threshold",
      "outputs": [
        {
          "internalType": "uint256",
          "name": "",
          "type": "uint256"
        }
      ],
      "stateMutability": "view",
      "type": "function"
    },
    {
      "inputs": [],
      "name": "timeLeft",
      "outputs": [
        {
          "internalType": "uint256",
          "name": "",
          "type": "uint256"
        }
      ],
      "stateMutability": "view",
      "type": "function"
    },
    {
      "inputs": [],
      "name": "withdraw",
      "outputs": [],
      "stateMutability": "nonpayable",
      "type": "function"
    },
    {
      "stateMutability": "payable",
      "type": "receive"
    }
  ],
  "transactionHash": "0xbb6735817c0eb7d96d6562f3a0a47dfce460314048e7d6e17b5dfd5005b804ac",
  "args": [
    "0xC91755b720D52cE5d7a37d7F8C54347BAAA341b5"
  ],
  "numDeployments": 1,
  "solcInputHash": "6d00366b9c0632a7e27ad2ed0fd47cef",
  "bytecode": "0x60806040526002805460ff1916905534801561001a57600080fd5b506040516108b53803806108b58339810160408190526100399161006f565b60028054610100600160a81b0319166101006001600160a01b03841602179055610066426203f48061009d565b600155506100c1565b600060208284031215610080578081fd5b81516001600160a01b0381168114610096578182fd5b9392505050565b600082198211156100bc57634e487b7160e01b81526011600452602481fd5b500190565b6107e5806100d06000396000f3fe60806040526004361061008a5760003560e01c80633ccfd60b116100595780633ccfd60b1461011157806342cde4e81461012657806361461954146101425780639876a643146101575780639f75f2271461018157600080fd5b80631300a6d11461009e57806327e235e3146100c657806329dcb0cf146100f35780633a4b66f11461010957600080fd5b36610099576100976101be565b005b600080fd5b3480156100aa57600080fd5b506100b3610268565b6040519081526020015b60405180910390f35b3480156100d257600080fd5b506100b36100e136600461071c565b60006020819052908152604090205481565b3480156100ff57600080fd5b506100b360015481565b6100976101be565b34801561011d57600080fd5b5061009761028c565b34801561013257600080fd5b506100b3670de0b6b3a764000081565b34801561014e57600080fd5b506100976104a7565b34801561016357600080fd5b506002546101719060ff1681565b60405190151581526020016100bd565b34801561018d57600080fd5b506002546101a69061010090046001600160a01b031681565b6040516001600160a01b0390911681526020016100bd565b600154421061020d5760405162461bcd60e51b815260206004820152601660248201527529ba30b5b4b733903832b934b7b21034b99037bb32b960511b60448201526064015b60405180910390fd5b336000908152602081905260408120805434929061022c90849061076a565b909155505060405134815233907febedb8b3c678666e7f36970bc8f57abf6d8fa2e828c0da91ea5b75bf68ed101a9060200160405180910390a2565b600060015442106102795750600090565b426001546102879190610782565b905090565b600260019054906101000a90046001600160a01b03166001600160a01b0316639d9a7fe96040518163ffffffff1660e01b815260040160206040518083038186803b1580156102da57600080fd5b505afa1580156102ee573d6000803e3d6000fd5b505050506040513d601f19601f82011682018060405250810190610312919061074a565b1561035f5760405162461bcd60e51b815260206004820152601a60248201527f436f6e747261637420616c726561647920636f6d706c657465640000000000006044820152606401610204565b60025460ff166103b15760405162461bcd60e51b815260206004820152601860248201527f5769746864726177616c7320617265206e6f74206f70656e00000000000000006044820152606401610204565b336000908152602081905260409020546104065760405162461bcd60e51b81526020600482015260166024820152754e6f2062616c616e636520746f20776974686472617760501b6044820152606401610204565b33600081815260208190526040808220805490839055905190929083908381818185875af1925050503d806000811461045b576040519150601f19603f3d011682016040523d82523d6000602084013e610460565b606091505b50509050806104a35760405162461bcd60e51b815260206004820152600f60248201526e15da5d1a191c985dc819985a5b1959608a1b6044820152606401610204565b5050565b600260019054906101000a90046001600160a01b03166001600160a01b0316639d9a7fe96040518163ffffffff1660e01b815260040160206040518083038186803b1580156104f557600080fd5b505afa158015610509573d6000803e3d6000fd5b505050506040513d601f19601f8201168201806040525081019061052d919061074a565b1561057a5760405162461bcd60e51b815260206004820152601a60248201527f436f6e747261637420616c726561647920636f6d706c657465640000000000006044820152606401610204565b6001544210156105cc5760405162461bcd60e51b815260206004820152601860248201527f446561646c696e65206e6f7420726561636865642079657400000000000000006044820152606401610204565b600260019054906101000a90046001600160a01b03166001600160a01b0316639d9a7fe96040518163ffffffff1660e01b815260040160206040518083038186803b15801561061a57600080fd5b505afa15801561062e573d6000803e3d6000fd5b505050506040513d601f19601f82011682018060405250810190610652919061074a565b156106935760405162461bcd60e51b8152602060048201526011602482015270105b1c9958591e4818dbdb5c1b195d1959607a1b6044820152606401610204565b670de0b6b3a7640000471061070d57600260019054906101000a90046001600160a01b03166001600160a01b031663522e1177476040518263ffffffff1660e01b81526004016000604051808303818588803b1580156106f257600080fd5b505af1158015610706573d6000803e3d6000fd5b5050505050565b6002805460ff19166001179055565b60006020828403121561072d578081fd5b81356001600160a01b0381168114610743578182fd5b9392505050565b60006020828403121561075b578081fd5b81518015158114610743578182fd5b6000821982111561077d5761077d610799565b500190565b60008282101561079457610794610799565b500390565b634e487b7160e01b600052601160045260246000fdfea2646970667358221220e778ca23b8a42357b2da96405978f28815fbcf36906e8e9964b42fdb7dee8bae64736f6c63430008040033",
  "devdoc": {
    "kind": "dev",
    "methods": {},
    "version": 1
  },
  "userdoc": {
    "kind": "user",
    "methods": {},
    "version": 1
  },
  "storageLayout": {
    "storage": [
      {
        "astId": 20,
        "contract": "contracts/Staker.sol:Staker",
        "label": "balances",
        "offset": 0,
        "slot": "0",
        "type": "t_mapping(t_address,t_uint256)"
      },
      {
        "astId": 25,
        "contract": "contracts/Staker.sol:Staker",
        "label": "deadline",
        "offset": 0,
        "slot": "1",
        "type": "t_uint256"
      },
      {
        "astId": 28,
        "contract": "contracts/Staker.sol:Staker",
        "label": "openForWithdraw",
        "offset": 0,
        "slot": "2",
        "type": "t_bool"
      },
      {
        "astId": 31,
        "contract": "contracts/Staker.sol:Staker",
        "label": "exampleExternalContract",
        "offset": 1,
        "slot": "2",
        "type": "t_contract(ExampleExternalContract)12"
      }
    ],
    "types": {
      "t_address": {
        "encoding": "inplace",
        "label": "address",
        "numberOfBytes": "20"
      },
      "t_bool": {
        "encoding": "inplace",
        "label": "bool",
        "numberOfBytes": "1"
      },
      "t_contract(ExampleExternalContract)12": {
        "encoding": "inplace",
        "label": "contract ExampleExternalContract",
        "numberOfBytes": "20"
      },
      "t_mapping(t_address,t_uint256)": {
        "encoding": "mapping",
        "key": "t_address",
        "label": "mapping(address => uint256)",
        "numberOfBytes": "32",
        "value": "t_uint256"
      },
      "t_uint256": {
        "encoding": "inplace",
        "label": "uint256",
        "numberOfBytes": "32"
      }
    }
  }
}