{
  "address": "0x67e8FF7fd75424AeBfe1e481bba3d300766E4f23",
  "abi": [
    {
      "inputs": [
        {
          "internalType": "address",
          "name": "tokenAddress",
          "type": "address"
        }
      ],
      "stateMutability": "nonpayable",
      "type": "constructor"
    },
    {
      "anonymous": false,
      "inputs": [
        {
          "indexed": true,
          "internalType": "address",
          "name": "buyer",
          "type": "address"
        },
        {
          "indexed": false,
          "internalType": "uint256",
          "name": "amountOfETH",
          "type": "uint256"
        },
        {
          "indexed": false,
          "internalType": "uint256",
          "name": "amountOfTokens",
          "type": "uint256"
        }
      ],
      "name": "BuyTokens",
      "type": "event"
    },
    {
      "anonymous": false,
      "inputs": [
        {
          "indexed": true,
          "internalType": "address",
          "name": "previousOwner",
          "type": "address"
        },
        {
          "indexed": true,
          "internalType": "address",
          "name": "newOwner",
          "type": "address"
        }
      ],
      "name": "OwnershipTransferred",
      "type": "event"
    },
    {
      "anonymous": false,
      "inputs": [
        {
          "indexed": true,
          "internalType": "address",
          "name": "seller",
          "type": "address"
        },
        {
          "indexed": false,
          "internalType": "uint256",
          "name": "amountOfTokens",
          "type": "uint256"
        },
        {
          "indexed": false,
          "internalType": "uint256",
          "name": "amountOfETH",
          "type": "uint256"
        }
      ],
      "name": "SellTokens",
      "type": "event"
    },
    {
      "inputs": [],
      "name": "buyTokens",
      "outputs": [],
      "stateMutability": "payable",
      "type": "function"
    },
    {
      "inputs": [],
      "name": "owner",
      "outputs": [
        {
          "internalType": "address",
          "name": "",
          "type": "address"
        }
      ],
      "stateMutability": "view",
      "type": "function"
    },
    {
      "inputs": [],
      "name": "renounceOwnership",
      "outputs": [],
      "stateMutability": "nonpayable",
      "type": "function"
    },
    {
      "inputs": [
        {
          "internalType": "uint256",
          "name": "amount",
          "type": "uint256"
        }
      ],
      "name": "sellTokens",
      "outputs": [],
      "stateMutability": "nonpayable",
      "type": "function"
    },
    {
      "inputs": [],
      "name": "tokensPerEth",
      "outputs": [
        {
          "internalType": "uint256",
          "name": "",
          "type": "uint256"
        }
      ],
      "stateMutability": "view",
      "type": "function"
    },
    {
      "inputs": [
        {
          "internalType": "address",
          "name": "newOwner",
          "type": "address"
        }
      ],
      "name": "transferOwnership",
      "outputs": [],
      "stateMutability": "nonpayable",
      "type": "function"
    },
    {
      "inputs": [],
      "name": "withdraw",
      "outputs": [],
      "stateMutability": "nonpayable",
      "type": "function"
    },
    {
      "inputs": [],
      "name": "yourToken",
      "outputs": [
        {
          "internalType": "contract YourToken",
          "name": "",
          "type": "address"
        }
      ],
      "stateMutability": "view",
      "type": "function"
    }
  ],
  "transactionHash": "0x48148bf3d0ae43d38c6892cb4c8366f6090a6c98d4cbc7191544621b6147ba12",
  "args": [
    "0x60783575DAe4131d04D780fdc3e60f07Ff9ac595"
  ],
  "numDeployments": 1,
  "solcInputHash": "08da25507a17445af22a7c8543dac5fb",
  "bytecode": "0x608060405234801561001057600080fd5b506040516109b03803806109b083398101604081905261002f916100ad565b6100383361005d565b600180546001600160a01b0319166001600160a01b03929092169190911790556100db565b600080546001600160a01b038381166001600160a01b0319831681178455604051919092169283917f8be0079c531659141344cd1fd0a4f28419497f9722a3daafe3b4186f6b6457e09190a35050565b6000602082840312156100be578081fd5b81516001600160a01b03811681146100d4578182fd5b9392505050565b6108c6806100ea6000396000f3fe60806040526004361061007b5760003560e01c80638da5cb5b1161004e5780638da5cb5b14610109578063cbdd69b514610127578063d0febe4c1461014a578063f2fde38b1461015257600080fd5b80633ccfd60b146100805780636c11bcd314610097578063715018a6146100b75780637879e84b146100cc575b600080fd5b34801561008c57600080fd5b50610095610172565b005b3480156100a357600080fd5b506100956100b2366004610815565b6101ff565b3480156100c357600080fd5b50610095610493565b3480156100d857600080fd5b506001546100ec906001600160a01b031681565b6040516001600160a01b0390911681526020015b60405180910390f35b34801561011557600080fd5b506000546001600160a01b03166100ec565b34801561013357600080fd5b5061013c606481565b604051908152602001610100565b6100956104a7565b34801561015e57600080fd5b5061009561016d3660046107c7565b6106a4565b61017a61071d565b47806101c25760405162461bcd60e51b81526020600482015260126024820152714e6f2045544820746f20776974686472617760701b60448201526064015b60405180910390fd5b600080546040516001600160a01b039091169183156108fc02918491818181858888f193505050501580156101fb573d6000803e3d6000fd5b5050565b6000811161025b5760405162461bcd60e51b815260206004820152602360248201527f5370656369667920616e20616d6f756e74206f6620746f6b656e7320746f2073604482015262195b1b60ea1b60648201526084016101b9565b600154604051636eb1769f60e11b81523360048201523060248201526000916001600160a01b03169063dd62ed3e9060440160206040518083038186803b1580156102a557600080fd5b505afa1580156102b9573d6000803e3d6000fd5b505050506040513d601f19601f820116820180604052508101906102dd919061082d565b90508181101561032f5760405162461bcd60e51b815260206004820152601960248201527f436865636b2074686520746f6b656e20616c6c6f77616e63650000000000000060448201526064016101b9565b600061033c606484610845565b90508047101561039a5760405162461bcd60e51b8152602060048201526024808201527f56656e646f7220636f6e74726163742068617320696e73756666696369656e746044820152630408aa8960e31b60648201526084016101b9565b6001546040516323b872dd60e01b8152336004820152306024820152604481018590526001600160a01b03909116906323b872dd90606401602060405180830381600087803b1580156103ec57600080fd5b505af1158015610400573d6000803e3d6000fd5b505050506040513d601f19601f8201168201806040525081019061042491906107f5565b50604051339082156108fc029083906000818181858888f19350505050158015610452573d6000803e3d6000fd5b50604080518481526020810183905233917fa24838acd4af5195a2396965dae5abf54e84e8c19f5698bb966ae64e29994ee5910160405180910390a2505050565b61049b61071d565b6104a56000610777565b565b600034116104f05760405162461bcd60e51b815260206004820152601660248201527553656e642045544820746f2062757920746f6b656e7360501b60448201526064016101b9565b60006104fd606434610865565b6001546040516370a0823160e01b81523060048201529192506000916001600160a01b03909116906370a082319060240160206040518083038186803b15801561054657600080fd5b505afa15801561055a573d6000803e3d6000fd5b505050506040513d601f19601f8201168201806040525081019061057e919061082d565b9050818110156105e05760405162461bcd60e51b815260206004820152602760248201527f56656e646f7220636f6e74726163742068617320696e73756666696369656e7460448201526620746f6b656e7360c81b60648201526084016101b9565b60015460405163a9059cbb60e01b8152336004820152602481018490526001600160a01b039091169063a9059cbb90604401602060405180830381600087803b15801561062c57600080fd5b505af1158015610640573d6000803e3d6000fd5b505050506040513d601f19601f8201168201806040525081019061066491906107f5565b50604080513481526020810184905233917f0a37b72bb67eee30e09084cf386f8a17817c57f620c3ab95fb25d6a20356ec77910160405180910390a25050565b6106ac61071d565b6001600160a01b0381166107115760405162461bcd60e51b815260206004820152602660248201527f4f776e61626c653a206e6577206f776e657220697320746865207a65726f206160448201526564647265737360d01b60648201526084016101b9565b61071a81610777565b50565b6000546001600160a01b031633146104a55760405162461bcd60e51b815260206004820181905260248201527f4f776e61626c653a2063616c6c6572206973206e6f7420746865206f776e657260448201526064016101b9565b600080546001600160a01b038381166001600160a01b0319831681178455604051919092169283917f8be0079c531659141344cd1fd0a4f28419497f9722a3daafe3b4186f6b6457e09190a35050565b6000602082840312156107d8578081fd5b81356001600160a01b03811681146107ee578182fd5b9392505050565b600060208284031215610806578081fd5b815180151581146107ee578182fd5b600060208284031215610826578081fd5b5035919050565b60006020828403121561083e578081fd5b5051919050565b60008261086057634e487b7160e01b81526012600452602481fd5b500490565b600081600019048311821515161561088b57634e487b7160e01b81526011600452602481fd5b50029056fea26469706673582212200df28e05a5f004cb2d1f4b65d7e8712e199db3dcb2e493930d4dd2f057d86b5964736f6c63430008040033",
  "devdoc": {
    "kind": "dev",
    "methods": {
      "owner()": {
        "details": "Returns the address of the current owner."
      },
      "renounceOwnership()": {
        "details": "Leaves the contract without owner. It will not be possible to call `onlyOwner` functions. Can only be called by the current owner. NOTE: Renouncing ownership will leave the contract without an owner, thereby disabling any functionality that is only available to the owner."
      },
      "transferOwnership(address)": {
        "details": "Transfers ownership of the contract to a new account (`newOwner`). Can only be called by the current owner."
      }
    },
    "version": 1
  },
  "userdoc": {
    "kind": "user",
    "methods": {},
    "version": 1
  },
  "storageLayout": {
    "storage": [
      {
        "astId": 7,
        "contract": "contracts/Vendor.sol:Vendor",
        "label": "_owner",
        "offset": 0,
        "slot": "0",
        "type": "t_address"
      },
      {
        "astId": 860,
        "contract": "contracts/Vendor.sol:Vendor",
        "label": "yourToken",
        "offset": 0,
        "slot": "1",
        "type": "t_contract(YourToken)1057"
      }
    ],
    "types": {
      "t_address": {
        "encoding": "inplace",
        "label": "address",
        "numberOfBytes": "20"
      },
      "t_contract(YourToken)1057": {
        "encoding": "inplace",
        "label": "contract YourToken",
        "numberOfBytes": "20"
      }
    }
  }
}